{
  "contractName": "Faucet",
  "abi": [
    {
      "inputs": [
        {
          "internalType": "uint256",
          "name": "",
          "type": "uint256"
        }
      ],
      "name": "funders",
      "outputs": [
        {
          "internalType": "address",
          "name": "",
          "type": "address"
        }
      ],
      "stateMutability": "view",
      "type": "function",
      "constant": true
    },
    {
      "inputs": [],
      "name": "numOfFunders",
      "outputs": [
        {
          "internalType": "uint256",
          "name": "",
          "type": "uint256"
        }
      ],
      "stateMutability": "view",
      "type": "function",
      "constant": true
    },
    {
      "stateMutability": "payable",
      "type": "receive",
      "payable": true
    },
    {
      "inputs": [
        {
          "internalType": "uint256",
          "name": "ammount",
          "type": "uint256"
        }
      ],
      "name": "withdraw",
      "outputs": [],
      "stateMutability": "nonpayable",
      "type": "function"
    },
    {
      "inputs": [],
      "name": "addFunds",
      "outputs": [],
      "stateMutability": "payable",
      "type": "function",
      "payable": true
    },
    {
      "inputs": [
        {
          "internalType": "uint8",
          "name": "index",
          "type": "uint8"
        }
      ],
      "name": "getFundersAt",
      "outputs": [
        {
          "internalType": "address",
          "name": "",
          "type": "address"
        }
      ],
      "stateMutability": "view",
      "type": "function",
      "constant": true
    },
    {
      "inputs": [],
      "name": "getAllFunders",
      "outputs": [
        {
          "internalType": "address[]",
          "name": "",
          "type": "address[]"
        }
      ],
      "stateMutability": "view",
      "type": "function",
      "constant": true
    }
  ],
  "bytecode": "0x608060405234801561001057600080fd5b50610745806100206000396000f3fe6080604052600436106100595760003560e01c80632e1a7d4d146100655780636fbbb55d1461008e578063a26759cb146100b9578063af7f2c9b146100c3578063bd7ca45b146100ee578063dc0d3dff1461012b57610060565b3661006057005b600080fd5b34801561007157600080fd5b5061008c60048036038101906100879190610440565b610168565b005b34801561009a57600080fd5b506100a36101d2565b6040516100b09190610550565b60405180910390f35b6100c1610317565b005b3480156100cf57600080fd5b506100d8610380565b6040516100e59190610572565b60405180910390f35b3480156100fa57600080fd5b5061011560048036038101906101109190610469565b610386565b6040516101229190610535565b60405180910390f35b34801561013757600080fd5b50610152600480360381019061014d9190610440565b6103c6565b60405161015f9190610535565b60405180910390f35b6000610173826103f9565b905061017f600a6103f9565b8110156101ce573373ffffffffffffffffffffffffffffffffffffffff166108fc829081150290604051600060405180830381858888f193505050501580156101cc573d6000803e3d6000fd5b505b5050565b60606000805467ffffffffffffffff811115610217577f4e487b7100000000000000000000000000000000000000000000000000000000600052604160045260246000fd5b6040519080825280602002602001820160405280156102455781602001602082028036833780820191505090505b50905060005b60005481101561030f576001600082815260200190815260200160002060009054906101000a900473ffffffffffffffffffffffffffffffffffffffff168282815181106102c2577f4e487b7100000000000000000000000000000000000000000000000000000000600052603260045260246000fd5b602002602001019073ffffffffffffffffffffffffffffffffffffffff16908173ffffffffffffffffffffffffffffffffffffffff1681525050808061030790610669565b91505061024b565b508091505090565b336001600080600081548092919061032e90610669565b91905055815260200190815260200160002060006101000a81548173ffffffffffffffffffffffffffffffffffffffff021916908373ffffffffffffffffffffffffffffffffffffffff160217905550565b60005481565b6000600160008360ff16815260200190815260200160002060009054906101000a900473ffffffffffffffffffffffffffffffffffffffff169050919050565b60016020528060005260406000206000915054906101000a900473ffffffffffffffffffffffffffffffffffffffff1681565b6000670de0b6b3a76400008261040f91906105c6565b9050919050565b600081359050610425816106e1565b92915050565b60008135905061043a816106f8565b92915050565b60006020828403121561045257600080fd5b600061046084828501610416565b91505092915050565b60006020828403121561047b57600080fd5b60006104898482850161042b565b91505092915050565b600061049e83836104aa565b60208301905092915050565b6104b381610620565b82525050565b6104c281610620565b82525050565b60006104d38261059d565b6104dd81856105b5565b93506104e88361058d565b8060005b838110156105195781516105008882610492565b975061050b836105a8565b9250506001810190506104ec565b5085935050505092915050565b61052f81610652565b82525050565b600060208201905061054a60008301846104b9565b92915050565b6000602082019050818103600083015261056a81846104c8565b905092915050565b60006020820190506105876000830184610526565b92915050565b6000819050602082019050919050565b600081519050919050565b6000602082019050919050565b600082825260208201905092915050565b60006105d182610652565b91506105dc83610652565b9250817fffffffffffffffffffffffffffffffffffffffffffffffffffffffffffffffff0483118215151615610615576106146106b2565b5b828202905092915050565b600061062b82610632565b9050919050565b600073ffffffffffffffffffffffffffffffffffffffff82169050919050565b6000819050919050565b600060ff82169050919050565b600061067482610652565b91507fffffffffffffffffffffffffffffffffffffffffffffffffffffffffffffffff8214156106a7576106a66106b2565b5b600182019050919050565b7f4e487b7100000000000000000000000000000000000000000000000000000000600052601160045260246000fd5b6106ea81610652565b81146106f557600080fd5b50565b6107018161065c565b811461070c57600080fd5b5056fea2646970667358221220c2c7e084c468bce6b3eedacc34263ea567b3437a6fc50bdbca8544b41cf05c6264736f6c63430008040033",
  "immutableReferences": {},
  "source": "// SPDX-License-Identifier: MIT\npragma solidity >=0.4.22 <0.9.0;\n\ncontract Faucet {\n\n    uint public numOfFunders;\n    mapping(uint => address) public funders;\n\n    receive() external payable {}\n\n    function withdraw(uint256 ammount) external {\n        uint wei_ammount = eth_to_wei(ammount);\n        if (wei_ammount < eth_to_wei(10)){\n            payable(msg.sender).transfer(wei_ammount);\n        }\n    }\n\n    function addFunds() external payable {\n        funders[numOfFunders++] = msg.sender;\n    }\n\n    function getFundersAt(uint8 index) external view returns(address) {\n        return funders[index];\n    }\n\n    function getAllFunders() external view returns(address[] memory) {\n        address[] memory _funders = new address[](numOfFunders);\n\n        for (uint i = 0; i < numOfFunders; i++) {\n            _funders[i] = funders[i];\n        }\n\n        return _funders;\n    }\n\n    function eth_to_wei(uint256 eth) internal pure returns(uint256) {\n        return eth * 1000000000000000000;\n    }\n}",
  "sourcePath": "/Users/andrey/Documents/faucet/contracts/Faucet.sol",
  "compiler": {
    "name": "solc",
    "version": "0.8.4+commit.c7e474f2.Emscripten.clang"
  },
  "schemaVersion": "3.4.11",
  "updatedAt": "2023-01-31T22:29:44.930Z",
  "networkType": "ethereum",
  "devdoc": {
    "kind": "dev",
    "methods": {},
    "version": 1
  },
  "userdoc": {
    "kind": "user",
    "methods": {},
    "version": 1
  }
}