{
  "contractName": "Faucet",
  "abi": [
    {
      "inputs": [
        {
          "internalType": "uint256",
          "name": "",
          "type": "uint256"
        }
      ],
      "name": "funders",
      "outputs": [
        {
          "internalType": "address",
          "name": "",
          "type": "address"
        }
      ],
      "stateMutability": "view",
      "type": "function",
      "constant": true
    },
    {
      "inputs": [],
      "name": "numOfFunders",
      "outputs": [
        {
          "internalType": "uint256",
          "name": "",
          "type": "uint256"
        }
      ],
      "stateMutability": "view",
      "type": "function",
      "constant": true
    },
    {
      "stateMutability": "payable",
      "type": "receive",
      "payable": true
    },
    {
      "inputs": [
        {
          "internalType": "uint256",
          "name": "amount",
          "type": "uint256"
        }
      ],
      "name": "withdraw",
      "outputs": [],
      "stateMutability": "nonpayable",
      "type": "function"
    },
    {
      "inputs": [],
      "name": "addFunds",
      "outputs": [],
      "stateMutability": "payable",
      "type": "function",
      "payable": true
    },
    {
      "inputs": [
        {
          "internalType": "uint8",
          "name": "index",
          "type": "uint8"
        }
      ],
      "name": "getFundersAt",
      "outputs": [
        {
          "internalType": "address",
          "name": "",
          "type": "address"
        }
      ],
      "stateMutability": "view",
      "type": "function",
      "constant": true
    },
    {
      "inputs": [],
      "name": "getAllFunders",
      "outputs": [
        {
          "internalType": "address[]",
          "name": "",
          "type": "address[]"
        }
      ],
      "stateMutability": "view",
      "type": "function",
      "constant": true
    }
  ],
  "bytecode": "0x608060405234801561001057600080fd5b50610816806100206000396000f3fe6080604052600436106100595760003560e01c80632e1a7d4d146100655780636fbbb55d1461008e578063a26759cb146100b9578063af7f2c9b146100c3578063bd7ca45b146100ee578063dc0d3dff1461012b57610060565b3661006057005b600080fd5b34801561007157600080fd5b5061008c6004803603810190610087919061046e565b610168565b005b34801561009a57600080fd5b506100a3610200565b6040516100b091906105a1565b60405180910390f35b6100c1610345565b005b3480156100cf57600080fd5b506100d86103ae565b6040516100e591906105e3565b60405180910390f35b3480156100fa57600080fd5b5061011560048036038101906101109190610497565b6103b4565b6040516101229190610586565b60405180910390f35b34801561013757600080fd5b50610152600480360381019061014d919061046e565b6103f4565b60405161015f9190610586565b60405180910390f35b600a610174600a610427565b81106101b5576040517f08c379a00000000000000000000000000000000000000000000000000000000081526004016101ac906105c3565b60405180910390fd5b3373ffffffffffffffffffffffffffffffffffffffff166108fc839081150290604051600060405180830381858888f193505050501580156101fb573d6000803e3d6000fd5b505050565b60606000805467ffffffffffffffff811115610245577f4e487b7100000000000000000000000000000000000000000000000000000000600052604160045260246000fd5b6040519080825280602002602001820160405280156102735781602001602082028036833780820191505090505b50905060005b60005481101561033d576001600082815260200190815260200160002060009054906101000a900473ffffffffffffffffffffffffffffffffffffffff168282815181106102f0577f4e487b7100000000000000000000000000000000000000000000000000000000600052603260045260246000fd5b602002602001019073ffffffffffffffffffffffffffffffffffffffff16908173ffffffffffffffffffffffffffffffffffffffff16815250508080610335906106eb565b915050610279565b508091505090565b336001600080600081548092919061035c906106eb565b91905055815260200190815260200160002060006101000a81548173ffffffffffffffffffffffffffffffffffffffff021916908373ffffffffffffffffffffffffffffffffffffffff160217905550565b60005481565b6000600160008360ff16815260200190815260200160002060009054906101000a900473ffffffffffffffffffffffffffffffffffffffff169050919050565b60016020528060005260406000206000915054906101000a900473ffffffffffffffffffffffffffffffffffffffff1681565b6000670de0b6b3a76400008261043d9190610648565b9050919050565b600081359050610453816107b2565b92915050565b600081359050610468816107c9565b92915050565b60006020828403121561048057600080fd5b600061048e84828501610444565b91505092915050565b6000602082840312156104a957600080fd5b60006104b784828501610459565b91505092915050565b60006104cc83836104d8565b60208301905092915050565b6104e1816106a2565b82525050565b6104f0816106a2565b82525050565b60006105018261060e565b61050b8185610626565b9350610516836105fe565b8060005b8381101561054757815161052e88826104c0565b975061053983610619565b92505060018101905061051a565b5085935050505092915050565b6000610561602e83610637565b915061056c82610763565b604082019050919050565b610580816106d4565b82525050565b600060208201905061059b60008301846104e7565b92915050565b600060208201905081810360008301526105bb81846104f6565b905092915050565b600060208201905081810360008301526105dc81610554565b9050919050565b60006020820190506105f86000830184610577565b92915050565b6000819050602082019050919050565b600081519050919050565b6000602082019050919050565b600082825260208201905092915050565b600082825260208201905092915050565b6000610653826106d4565b915061065e836106d4565b9250817fffffffffffffffffffffffffffffffffffffffffffffffffffffffffffffffff048311821515161561069757610696610734565b5b828202905092915050565b60006106ad826106b4565b9050919050565b600073ffffffffffffffffffffffffffffffffffffffff82169050919050565b6000819050919050565b600060ff82169050919050565b60006106f6826106d4565b91507fffffffffffffffffffffffffffffffffffffffffffffffffffffffffffffffff82141561072957610728610734565b5b600182019050919050565b7f4e487b7100000000000000000000000000000000000000000000000000000000600052601160045260246000fd5b7f576974686472617720616d6d6f756e742073686f756c6420626520736d616c6c60008201527f6572207468616e20313020455448000000000000000000000000000000000000602082015250565b6107bb816106d4565b81146107c657600080fd5b50565b6107d2816106de565b81146107dd57600080fd5b5056fea2646970667358221220f0b73d171af1898ffe56a392144b6b5c08a3386502ff3c513ad6da277b9e096764736f6c63430008040033",
  "immutableReferences": {},
  "source": "// SPDX-License-Identifier: MIT\npragma solidity >=0.4.22 <0.9.0;\n\ncontract Faucet {\n\n    uint public numOfFunders;\n    mapping(uint => address) public funders;\n\n    modifier withdrawLimit(uint256 eth_amount) {\n        require(eth_amount < eth_to_wei(10), \"Withdraw ammount should be smaller than 10 ETH\");\n        _;\n    }\n\n    receive() external payable {}\n\n    function withdraw(uint256 amount) external withdrawLimit(10) {\n        payable(msg.sender).transfer(amount);\n    }\n\n    function addFunds() external payable {\n        funders[numOfFunders++] = msg.sender;\n    }\n\n    function getFundersAt(uint8 index) external view returns(address) {\n        return funders[index];\n    }\n\n    function getAllFunders() external view returns(address[] memory) {\n        address[] memory _funders = new address[](numOfFunders);\n\n        for (uint i = 0; i < numOfFunders; i++) {\n            _funders[i] = funders[i];\n        }\n\n        return _funders;\n    }\n\n    function eth_to_wei(uint256 eth) internal pure returns(uint256) {\n        return eth * 1000000000000000000;\n    }\n}",
  "sourcePath": "/Users/andrey/Documents/faucet/contracts/Faucet.sol",
  "compiler": {
    "name": "solc",
    "version": "0.8.4+commit.c7e474f2.Emscripten.clang"
  },
  "schemaVersion": "3.4.11",
  "updatedAt": "2023-02-01T10:17:22.109Z",
  "networkType": "ethereum",
  "devdoc": {
    "kind": "dev",
    "methods": {},
    "version": 1
  },
  "userdoc": {
    "kind": "user",
    "methods": {},
    "version": 1
  }
}